:070A2F004F4E004F46460048
:1008AC00023500000127000134B401460002290082
:1008BC0000022C0000C100044700000000022500CB
:1008CC00000145000232000004410000000002302B
:1008DC000000043D00000000013C00042100000069
:0108EC00000B
:10002600E4F5B1F5B2F5B3F5B4F5ACF5AD1209A842
:100036007F647E0012092EC2907FD07E0712092EA1
:10004600E527146014146021240270F41204B2121D
:1000560006F1AF27EF60F580E712000E1206F112E7
:100066000A26AF27EF60F280D712007F1206F11240
:090076000A26AF27EF60F280C7F3
:03000B0002057E6D
:10057E00C0E0C0F0C0D075D000C000C004C005C03F
:10058E0006C00785288C852E8A0536E5367002054D
:10059E003530001BAF4AAE49AD48AC47EF2401F5EC
:1005AE004AE43EF549E43DF548E43CF547800C75D8
:1005BE004A00754900754800754700C3E53694102A
:1005CE00E53594274006753500753600AE35AF36E5
:1005DE007C007D0A1201EDED4C7003753701AE35CE
:1005EE00AF367C007D0A1201EDED4C7003753801BB
:1005FE00AE35AF367C007D641201EDED4C700375A7
:10060E003901AE35AF367C017DF41201EDED4C7043
:10061E0003753A01AE35AF367C017DF41201EDED76
:10062E004C7003753B01D007D006D005D004D00026
:07063E00D0D0D0F0D0E03273
:03001B0002035B82
:10035B00C0E0C0F0C083C082C0D075D000C000C068
:10036B0001C002C003C004C005C006C007852B8DA9
:10037B00852F8B20EF03020497E5451470030204CD
:10038B0016046003020497AFC3EF75F010A4ADC25F
:10039B007C002DFFEC35F0FE3395E0FDFCE5402FA6
:1003AB00F540E53F3EF53FE53E3DF53EE53D3CF591
:1003BB003D0531E53170020530C39464E53094009E
:1003CB004027E47B64FAF9F8AF40AE3FAD3EAC3D5D
:1003DB0012027E8E2C8F2D754000753F00753E00EE
:1003EB00753D0075300075310053E1FE53E8F04365
:1003FB00E80643B10853B2F775F60043F64043E104
:10040B0001C2EFD2EE754501020497AFC3EF75F051
:10041B0010A4ADC27C002DFFEC35F0FE3395E0FD52
:10042B00FCE5442FF544E5433EF543E5423DF542FB
:10043B00E5413CF5410533E53370020532C3946465
:10044B00E53294004027E47B64FAF9F8AF44AE43FD
:10045B00AD42AC4112027E8E298F2A754400754342
:10046B000075420075410075320075330053E1FE93
:10047B0053E8F043E80543B11053B2EF75F6004370
:10048B00F62043E101C2EFD2EE754500D007D0064E
:10049B00D005D004D003D002D001D000D0D0D08270
:0704AB00D083D0F0D0E03255
:1004B200E5376401600302057DE5467014AF3CEF49
:1004C2006401600DE4FD7F0512095A753C010205C5
:1004D2007AE5466401600302057AAF3CEF6402608C
:1004E20021C3E52A945FE52994065016C29053DE93
:1004F200FE53DEFDC291D292D290753C027534B4A5
:0D0502008076C3E52A945FE5299406406BDE
:10050F00AC29AD2AE4120133A804A905AA06AB074A
:10051F007F007EF27D8F7C4812009112016C8E0855
:10052F008F09C3E509949AE50894005006750800F1
:10053F0075099AAF347E00EF65097002E508601AFD
:10054F00D3EF9509EE9508400415348014C3EF9549
:10055F0009EE9508500B05348007AF3CEF6403603C
:0B056F000A7D01AF3412095A753C03ED
:04057A00E4F537224B
:09000E00E53864017002F53822A6
:09007F00E53964017002F5392233
:1006F100E4F508E53A64017079750CFF750D0A752A
:100701000E2F7B017A007900120774E94A4B6022AF
:10071100754601E4F508C3E508946474809480503B
:100721004974002508F582E43400F583E4F00508F6
:1007310080E4750CFF750D0A750E327B017A007924
:1007410000120774E94A4B6026E4F546F508C3E553
:1007510008946474809480501174002508F582E433
:100761003400F583E4F0050880E4E4F525F526E49A
:02077100F53A57
:010773002263
:090A2600E53B64017002F53B227E
:01001E0022BF
:100A1400E4FDFCC3ED9FEC9E50070DBD00010C806E
:010A2400F2DF
:010A250022AE
:10092E00E48F248E23F522F521D200F54AF549F500
:10093E0048F547AF24AE23AD22AC21AB4AAA49A954
:0B094E0048A847D312031E40EAC20075
:01095900227B
:030023000208EEE2
:1008EE00C0E0C083C082C0D030982CC3E52694648B
:1008FE00E5259400501974002526F58274003525DF
:10090E00F583E599F00526E526700A05258006751E
:10091E002500752600C298D0D0D082D083D0E03288
:03008B0002001759
:04001700538FEF32E2
:10095A00EDFB7A00700DC29053DEFE53DEFDC292AB
:10096A00C29122EB64014A700F43DE0143DE02D2D8
:09097A0090F5D2EFF5DAD2DE228D
:1009A80012001F12085D120A011209C91209E57F17
:1009B800807E257D007C001207F6D299D2ACD2EF5A
:0109C800220C
:01001F0022BE
:1009C900538EF75389F04389017528FA752ECB8523
:0C09D900288C852E8AD2A9D2AFD28C22A5
:100A010053B3FE43B401C29053DEFE53DEFDC292E6
:030A1100C291226D
:1009E500538EEF53890F438910752BFA752FCB85DD
:0C09F5002B8D852F8BD2ABD2AFD28E227F
:080003008F993099FDC299228A
:1007F6008F0B8E0A8D098C0853B1BF53B2BF53B10C
:100806007F53B27F75985043878053C4F843C42002
:10081600AB0BAA0AA909A8087F407E427D0F7C007F
:1008260012027EC374FF9FFF74FF9EFEE49DFDE4EB
:100836009CFC780812032F8FC6AB0BAA0AA909A83D
:10084600087F407E427D0F7C0012027EC374FF9FAC
:07085600FF8FC543C4082217
:10085D00E4F5B1F5B2F5B3F5B4F5ACF5AD53B3FBC5
:10086D0043B40453B3FD43B402538EBF43DF01536E
:10087D00DFF943DF4053DF7FF5D175D9C7F5D2F5E9
:10088D00DAA2AF9201C2AF75C7AA75C75543F90178
:0F089D00A20192AF7F0FFE120983D2DED2DF22BB
:10098300AD07AF06A2AF9201EF6401700BC2AF7562
:10099300C7AA75C75543F91075C7AA75C7558DFA08
:0409A300A20192AF6C
:0109A700222D
:03000000020645B0
:1006450075C7AA75C75575FD5A75C7AA75C7557576
:10065500FDA5787FE4F6D8FD9000007FFF7E03E4DA
:0C066500F0A3DFFCDEFA75814A0206AC4F
:10008E000201E2EC5D046005E8590470030201D838
:10009E001201A3580460F6EC4860F2EC7004FDFE09
:1000AE00FF22C860DB2481C85009C3986002500645
:1000BE000201DF9850CAF582E9294B4A7005AB82DE
:1000CE000201CE75F0007C1A7880C3EF9BEE9AED9C
:1000DE0099400DC3EF9BFFEE9AFEED99FDE842F0BD
:1000EE00DC23ACF0D0E0FFD0E0FED0E0FDAB822010
:1000FE00E7101BEB60BAEC2CFCEF33FFEE33FEED9A
:10010E0033FD0201BAE803F830E705C0F075F000E0
:10011E00EF2FFFEE33FEED33FD40B830E7C280AA7D
:10012E0075F020800E75F010800575F0087D007E4C
:10013E00007F003392D530D503120310EC334010FC
:10014E00EF33FFEE33FEED33FDEC33FCD5F0ED2255
:0E015E00E5F0247EA2D513CC92E7CDCEFF2291
:10016C00EDD2E7CD33EC3392D524814006E4FFFE8B
:10017C00FDFC22FCE4CFCECDCC24E0501174FF80EA
:10018C00EDC3CC13CCCD13CDCE13CECF13CF047087
:07019C00F030D5DE02031074
:1001A300E9D2E7C933E833F892D5EDD2E7CD33ECA2
:0701B30033FC5002B2D5221B
:1001BA00EC30E7100FBF000C0EBE00080DBD0004A6
:1001CA000BEB6014A2D5EB13FCED92E7FD2274FF52
:1001DA00FCFDFEFF22E480F8A2D574FF13FC7D80AB
:0301EA00E480EFBF
:10067100020026E493A3F8E493A34003F68001F279
:1006810008DFF48029E493A3F85407240CC8C3338A
:10069100C4540F4420C8834004F456800146F6DF59
:1006A100E4800B01020408102040809008ACE47E35
:1006B100019360BCA3FF543F30E509541FFEE4934E
:1006C100A360010ECF54C025E060A840B8E493A315
:1006D100FAE493A3F8E493A3C8C582C8CAC583CA40
:1006E100F0A3C8C582C8CAC583CADFE9DEE780BEF8
:0108ED00000A
:1001ED00BC000BBE0029EF8DF084FFADF022E4CCF6
:1001FD00F875F008EF2FFFEE33FEEC33FCEE9DECBF
:10020D00984005FCEE9DFE0FD5F0E9E4CEFD22ED04
:10021D00F8F5F0EE8420D21CFEADF075F008EF2F4E
:10022D00FFED33FD4007985006D5F0F222C398FD3F
:05023D000FD5F0EA22DC
:1002420075F008758200EF2FFFEE33FECD33CDCC73
:1002520033CCC58233C5829BED9AEC99E5829840F6
:100262000CF582EE9BFEED9AFDEC99FC0FD5F0D6D3
:10027200E4CEFBE4CDFAE4CCF9A88222B800C1B9FD
:100282000059BA002DEC8BF084CFCECDFCE5F0CB3B
:10029200F97818EF2FFFEE33FEED33FDEC33FCEB74
:1002A20033FB10D703994004EB99FB0FD8E5E4F92F
:1002B200FA227818EF2FFFEE33FEED33FDEC33FC1C
:1002C200C933C910D7059BE99A4007EC9BFCE99A10
:1002D200F90FD8E0E4C9FAE4CCFB2275F010EF2F55
:1002E200FFEE33FEED33FDCC33CCC833C810D70755
:1002F2009BEC9AE899400AED9BFDEC9AFCE899F890
:0E0302000FD5F0DAE4CDFBE4CCFAE4C8F92222
:0E031000C3E49FFFE49EFEE49DFDE49CFC22FE
:10031E00EB9FF5F0EA9E42F0E99D42F0E89C45F035
:01032E0022AC
:10032F00E8600FECC313FCED13FDEE13FEEF13FFAC
:03033F00D8F122D0
:100774008B098A0A890BAB0CAA0DA90E12034260DD
:1007840063AB09AA0AA90B120342605F850C0F85AB
:100794000D10850E118B128A138914AB0FAA10A9A0
:1007A40011120342FF6023AB12AA13A914120342CD
:1007B4006F7017042511F511E43510F51074012537
:1007C40014F514E43513F51380D1AB0FAA10A91155
:1007D4001203427002800D7401250BF50BE4350AF7
:1007E400F50A809DAB09AA0AA90B227B007A00793D
:0207F4000022E1
:10034200BB010689828A83E0225002E722BBFE02B9
:09035200E32289828A83E49322EC
:00000001FF
